:100000000217B4020006C2AFD2AF32021930C2AF3B
:07001000D2AF3202000E32F4
:03001B000219A423
:03002300021718A9
:10002B00021467121B45121B14908F7912092C00B6
:0E003B00000000908F8112092C0000000022AE
:10004B00020016908F63EFF0A3EDF0908F63E0B496
:10005B00020C7B017A82791AA3E0FD1211A0908F1A
:10006B0063E0B4030C7B017A877929A3E0FD1211BD
:02007B00A022C1
:1000830002167A908F81120908908F7D120914C38A
:100093001208F76043908F81120908908F7D12092F
:1000A30020121AA9908F85EEF0A3EFF0908F85E0D0
:1000B300FEA3E064014E7007FFFE121A1880199028
:1000C3008F85E0FEA3E04E70087F01FE121A1880B0
:1000D300077F027E00121A18121A8A22908728E0DC
:1000E300D394004003E014F0908C37E0D3940040A5
:1000F30003E014F022FFFF4457494E54350217FB27
:10010300908E3812097D908E3812095D1206A3B4C1
:10011300020E7B017A807900908E3C12097D801C4F
:10012300908E3812095D1206A3640360030205ACC6
:100133007B017A81790D908E3C12097D908E381265
:10014300095D9000061207CDFFAEF0908E381209BC
:100153005D9000081207CDC39FFFE5F09EFEE42FDC
:10016300FFEE340454034F7003020549C2AF908E6F
:100173003812095D900006E475F001120805FE903F
:100183008E3812095DE9240CF9E43AFAE925F0F90D
:10019300EA3EFA1206A3908E3BF0908E3812095D68
:1001A300E92406F9E43AFA1207A2FFE5F054038FB3
:1001B300F012089E908E3812095D90000AE412072F
:1001C30054D2AF908E3812095D90000B1206BC70AA
:1001D3007A908E3C12095DE4120742908E3C12091C
:1001E3005D900001E4120754908E3C12095D90006B
:1001F30002E4F5F01208BD908E3C12095D90010CEB
:10020300E4120754908E3BE0645A600302013F906E
:100213008E3812095D90000B7401120754908E3BC7
:10022300E0FFA312095D90010C74011206E9FD7C45
:1002330000908E3C12095DE92404F9E43AFAE92DB1
:10024300F9EC3AFAEF12074202013F908E38120995
:100253005D90000B1206BC64017053908E3BE0B4BA
:10026300A53C908E3812095D90000B74021207545E
:10027300908E3BE0FFA312095D90010C74011206FE
:10028300E9FD7C00908E3C12095DE92404F9E43A0F
:10029300FAE92DF9EC3AFAEF12074202013F908E88
:1002A3003812095D90000BE412075402013F908E4F
:1002B3003812095D90000B1206BC6402706C908EBC
:1002C3003BE0C39403400AE0D394087480948140D4
:1002D30010908E3812095D90000BE412075402014E
:1002E3003F908E3BE0FFA312095DEF120742908E11
:1002F3003BE0FFA312095D90010C74011206E9FDB6
:100303007C00908E3C12095DE92404F9E43AFAE991
:100313002DF9EC3AFAEF120742908E3812095D90EC
:10032300000B740312075402013F908E3812095DCB
:1003330090000B1206BC6403600302040A908E3B18
:10034300E064826076E064836071E064806005E06D
:1003530064817057908E3BE0FFA312095D9000010A
:10036300EF120754908E3BE0FFA312095D90010C3E
:1003730074011206E9FD7C00908E3C12095DE924AC
:1003830004F9E43AFAE92DF9EC3AFAEF120742904C
:100393008E3812095D90000B7406120754908E3C40
:1003A30012095D740212072002013F908E38120970
:1003B3005D90000BE412075402013F908E3BE0FF77
:1003C300A312095D900001EF120754908E3BE0FFEA
:1003D300A312095D90010C74011206E9FD7C0090E3
:1003E3008E3C12095DE92404F9E43AFAE92DF9ECAB
:1003F3003AFAEF120742908E3812095D90000B749F
:100403000412075402013F908E3812095D90000BCD
:100413001206BC6404704F908E3BE0FEA312095D8C
:10042300900002EE75F0001208BD908E3BE0FFA332
:1004330012095D90010C74011206E9FD7C00908E97
:100443003C12095DE92404F9E43AFAE92DF9EC3A9E
:10045300FAEF120742908E3812095D90000B740573
:1004630012075402013F908E3812095D90000B125F
:1004730006BC6405705E908E3C12095DE92402F9A6
:10048300E43AFA1207A2FF908E3BE0FDE5F0EF4D50
:10049300FFE5F08FF012089E908E3BE0FFA3120958
:1004A3005D90010C74011206E9FD7C00908E3C12F4
:1004B300095DE92404F9E43AFAE92DF9EC3AFAEF93
:1004C300120742908E3812095D90000B74061207D2
:1004D3005402013F908E3812095D90000B1206BC46
:1004E3006406600302013F908E3BE0FFA312095DA7
:1004F30090010C74011206E9FD7C00908E3C1209F8
:100503005DE92404F9E43AFAE92DF9EC3AFAEF1239
:100513000742908E3C12095D90010C1206BCFF90BD
:100523008E3C12095D1206A32403FDEC33FCEF6D30
:100533007001EC600302013F908E3812095D900058
:100543000B7407120754908E3812095D90000B123A
:1005530006BC64077053908E3812095D90000BE45B
:10056300120754908E3C12095DE92404F9E43AFA27
:10057300C003C002C001908E3812095D1206A3FDAC
:10058300908E3812095D90050C1206BC908E43F0D4
:10059300908E3812095D90050D1206BC908E44F0C2
:1005A300D001D002D0031215D122E709F608DFFAF1
:1005B3008046E709F208DFFA803E88828C83E709E8
:1005C300F0A3DFFA8032E309F608DFFA8078E30963
:1005D300F208DFFA807088828C83E309F0A3DFFAE4
:1005E300806489828A83E0A3F608DFFA80588982CF
:1005F3008A83E0A3F208DFFA804C80D280FA80C6B7
:1006030080D4806980F28033801080A680EA809A4B
:1006130080A880DA80E280CA803389828A83ECFAF8
:10062300E493A3C8C582C8CCC583CCF0A3C8C58254
:10063300C8CCC583CCDFE9DEE7800D89828A83E4F9
:1006430093A3F608DFF9ECFAA9F0EDFB2289828A7D
:1006530083ECFAE0A3C8C582C8CCC583CCF0A3C899
:10066300C582C8CCC583CCDFEADEE880DB89828A19
:1006730083E493A3F208DFF980CC88F0EF60010EE6
:100683004E60C388F0ED2402B4040050B9F582EB48
:100693002402B4040050AF23234582239005FD7345
:1006A300BB010689828A83E0225002E722BBFE0255
:1006B300E32289828A83E49322BB010CE58229F534
:1006C30082E5833AF583E0225006E92582F8E622A3
:1006D300BBFE06E92582F8E222E58229F582E5835D
:1006E3003AF583E49322BB0111F8E58229F582E50B
:1006F300833AF583E0C828F0E8225009C58229F837
:10070300C58226C622BBFE0DC58229F8E2C5822515
:1007130082F2E58222EA2583F583E99322BB01096C
:1007230089828A83F8E028F022500327F722BBFE50
:1007330005F8E328F3228A838982F8E4932822BB0D
:10074300010689828A83F0225002F722BBFE01F35D
:1007530022F8BB010DE58229F582E5833AF583E8AA
:10076300F0225006E92582C8F622BBFE05E9258260
:10077300C8F222C5F0F8A3E028F0C5F0F8E5821529
:100783008270021583E038F022A3F8E0C5F025F06B
:10079300F0E582158270021583E0C838F0E822BBC9
:1007A300010A89828A83E0F5F0A3E022500687F0EC
:1007B30009E71922BBFE07E3F5F009E31922898251
:1007C3008A83E493F5F074019322BB0110E5822937
:1007D300F582E5833AF583E0F5F0A3E0225009E9D9
:1007E3002582F886F008E622BBFE0AE92582F8E2B4
:1007F300F5F008E222E5832AF583E993F5F0A3E90E
:100803009322BB010FF8E58229F582E5833AF5834C
:10081300E802078C5011C58229F808C5F026C6F5F1
:10082300F018C58236C622BBFE15C58229F808E238
:10083300C5F025F0F218E2C5823582F2E58222E5A1
:10084300832AF583E993F5F0A3E993C5F022BB016D
:100853000DC58229C582C5833AC583020776501127
:10086300C58229F808E5F026F618F5F0E58236F694
:1008730022BBFE11C58229F808E225F0F5F0F21833
:10088300E23582F222F8E58229F582E5832AF583AF
:1008930074019325F0F5F0E4933822BB010A8982B1
:1008A3008A83F0E5F0A3F0225006F709A7F0192296
:1008B300BBFE06F3E5F009F31922F8BB0111E5824B
:1008C30029F582E5833AF583E8F0E5F0A3F02250B9
:1008D30009E92582C8F608A6F022BBFE09E92582AC
:1008E300C8F2E5F008F222EF2BFFEE3AFEED39FDF8
:1008F300EC38FC22EB9FF5F0EA9E42F0E99D42F0D2
:10090300E89C45F022E0FCA3E0FDA3E0FEA3E0FFAA
:1009130022E0F8A3E0F9A3E0FAA3E0FB22ECF0A3C2
:10092300EDF0A3EEF0A3EFF022A8828583F0D0834D
:10093300D082120943120943120943120943E47393
:10094300E493A3C583C5F0C583C8C582C8F0A3C516
:1009530083C5F0C583C8C582C822E0FBA3E0FAA320
:10096300E0F922F8E0FBA3A3E0F925F0F0E5821516
:100973008270021583E0FA38F022EBF0A3EAF0A3C9
:10098300E9F022908F4DEFF0A312097D30020302AC
:100993000A6CE4908F54F0908F54E0C39407502E68
:1009A300908F5112095D908F54E0F5827583001288
:1009B30006BCFF908F4E12095D908F54E0F582754F
:1009C3008300EF120754908F54E004F080C9908F96
:1009D3004E12095D9000041206BCFE908F4E120960
:1009E3005D9000051206BC7C002400FFEC3EFE90E7
:1009F3008F4E12095DE92407F9E43AFAC003C002F5
:100A0300C001908F4E12095D9000061206BCFD9046
:100A13008F5EECF0A3EDF0D001D002D0031212B937
:100A2300908F4E12095D9000061206BC25E0240447
:100A3300FF908F4E12095D900002EF120754908FC2
:100A43004DE0FFA312095DC003C002C001908F4EA9
:100A530012095D9000021206BC2403908F61F0D04E
:100A630001D002D003121A5422E4908F54F0908FD5
:100A730054E0C39409502E908F5112095D908F5406
:100A8300E0F5827583001206BCFF908F4E12095D5C
:100A9300908F54E0F582758300EF120754908F54C2
:100AA300E004F080C9908F4E12095DE92403F9E454
:100AB3003AFAC003C002C001908F4E12095D900044
:100AC300021206BC24FEFDE434FFFCD001D002D0A8
:100AD300031218BB908F55EEF0A3EFF0908F4E12D8
:100AE300095D9000021206BC2402FFE433FE908FDE
:100AF3004E12095D8F828E831206BCFE908F4E12BA
:100B0300095D9000021206BC2401FDE433FC908FC2
:100B13004E12095D8D828C831206BC7C002400FF7B
:100B2300EC3E908F57F0A3EFF0908F57E0FEA3E0D9
:100B3300FF908F55E0FCA3E06F7002EC6E60030240
:100B43000C66908F4E12095D9000041206BCFE9055
:100B53008F4E12095D9000051206BC7C002400FF35
:100B6300EC3EFE908F4E12095DE92407F9E43AFA50
:100B7300C003C002C001908F4E12095D900006129F
:100B830006BCFD908F5EECF0A3EDF0D001D002D057
:100B9300031212B9908F4E12095D9000061206BC23
:100BA30025E02406FF908F4E12095D900002EF129C
:100BB3000754908F4E12095DE92403F9E43AFAC011
:100BC30003C002C001908F4E12095D90000212060D
:100BD300BC24FEFDE434FFFCD001D002D003121884
:100BE300BB908F55EEF0A3EFF0908F55E0A3E0FF9D
:100BF300908F4E12095D9000021206BC2401FDE4A1
:100C030033FC908F4E12095D8D828C83EF12075453
:100C1300908F55E0FEA3E0EEFF908F4E12095D909A
:100C230000021206BC2402FDE433FC908F4E12092D
:100C33005D8D828C83EF120754908F4DE0FFA312DA
:100C4300095DC003C002C001908F4E12095D900080
:100C5300021206BC2403908F61F0D001D002D003AE
:100C6300121A5422448F7100000000428F87000043
:100C7300448F89000003E8C101C100C102448F7998
:100C830000000000448F8100000000448F7D0000BD
:100C93000000428F85000061008C3800C181400153
:100CA300C0804101C0804100C1814001C08041003A
:100CB300C1814000C1814001C0804101C080410029
:100CC300C1814000C1814001C0804100C181400118
:100CD300C0804101C0804100C1814001C08041000A
:100CE300C1814000C1814001C0804100C1814001F8
:100CF300C0804101C0804100C1814000C1814001E9
:100D0300C0804101C0804100C1814001C0804100D9
:100D1300C1814000C1814001C0804101C0804100C8
:100D2300C1814000C1814001C0804100C1814001B7
:100D3300C0804101C0804100C1814000C1814001A8
:100D4300C0804101C0804100C1814001C080410099
:100D5300C1814000C1814001C0804100C181400187
:100D6300C0804101C0804100C1814001C080410079
:100D7300C1814000C1814001C0804101C080410068
:100D8300C1814000C1814001C0804100C181400157
:100D9300C0804101C0804100C1814061008D3800A5
:100DA300C0C101C30302C2C60607C705C5C404CC3C
:100DB3000C0DCD0FCFCE0E0ACACB0BC90908C8D86C
:100DC3001819D91BDBDA1A1EDEDF1FDD1D1CDC142C
:100DD300D4D515D71716D6D21213D311D1D010F0FC
:100DE3003031F133F3F23236F6F737F53534F43C7C
:100DF300FCFD3DFF3F3EFEFA3A3BFB39F9F838284C
:100E0300E8E929EB2B2AEAEE2E2FEF2DEDEC2CE46B
:100E13002425E527E7E62622E2E323E12120E0A0DB
:100E23006061A163A3A26266A6A767A56564A46CBB
:100E3300ACAD6DAF6F6EAEAA6A6BAB69A9A86878EB
:100E4300B8B979BB7B7ABABE7E7FBF7DBDBC7CB4AB
:100E53007475B577B7B67672B2B373B17170B050BB
:100E63009091519353529296565797559594549CFB
:100E73005C5D9D5F9F9E5E5A9A9B5B9959589888CB
:100E83004849894B8B8A4A4E8E8F4F8D4D4C8C44EB
:100E9300848545874746868242438341818040005B
:100EA300908F4DEFF0A312097D300203020F619082
:100EB3008F4E12095D9000041206BC701D908F4E78
:100EC30012095D9000051206BCB4060E908F4E12F7
:100ED300095D90000774A5120754908F4E12095DA7
:100EE3009000041206BCFE908F4E12095D9000051F
:100EF3001206BC7C002400FFEC3EFE908F4E1209CC
:100F03005DE92406F9E43AFAC003C002C001908FF8
:100F13004E12095D9000021206BC24FDFDEC34FF65
:100F2300908F62F0A3EDF0D001D002D00312107FB6
:100F330020010302107E7BFF7A1B79B078517C8FEE
:100F43007D017E007F0612067D908F4DE0FF7B01C1
:100F53007A8F7951908F617406F0121A5422908F10
:100F63004E12095DE92403F9E43AFAC003C002C052
:100F730001908F4E12095D9000021206BC24FEFD03
:100F8300E434FFFCD001D002D0031218BB908F5180
:100F9300EEF0A3EFF0908F4E12095D90000212065F
:100FA300BC2402FFE433FE908F4E12095D8F828EC4
:100FB300831206BCFE908F4E12095D90000212064A
:100FC300BC2401FDE433FC908F4E12095D8D828CAD
:100FD300831206BC7C002400FFEC3E908F53F0A3E9
:100FE300EFF0908F53E0FEA3E0FF908F51E0FCA35E
:100FF300E06F7002EC6E600302107E908F4E120958
:101003005D9000041206BCFE908F4E12095D9000A5
:10101300051206BC7C002400FFEC3EFE908F4E12AE
:10102300095DE92406F9E43AFAC003C002C001905D
:101033008F4E12095D9000021206BC24FBFDEC34B6
:10104300FF908F62F0A3EDF0D001D002D003121015
:101053007F3001277BFF7A1B79B678557C8F7D0122
:101063007E007F0812067D908F4DE0FF7B017A8F13
:101073007955908F617408F0121A5422908F5DEEA7
:10108300F0A3EFF0A312097DC2AF908F5DE0A3E060
:101093005401908F64F0908F5DE0FEA3E0FFEEC3F8
:1010A30013FEEF13FF908F5DEEF0A3EFF0E4F5F185
:1010B300908F5DE0FEA3E0EEF5F2908F5DE0A3E09C
:1010C300F5F375F40175F88F30FCFD908F64E060E3
:1010D3003C908F62E0FEA3E0D39400EE9400402D99
:1010E30075F883908F5FE475F0011209661206A309
:1010F300F5FC908F5FE475F0011209661206A3F503
:10110300FDD2FE908F6274FFF5F012077675F88FAB
:10111300908F62E0FEA3E0C39402EE9400404B90F4
:101123008F5FE475F0011209661206A3F5FA908F3A
:101133005FE475F0011209661206A3F5FB908F5F59
:10114300E475F0011209661206A3F5FC908F5FE4C3
:1011530075F0011209661206A3F5FDD2FE908F62A7
:1011630074FF75F0FE12077680A6908F62E0FEA3EF
:10117300E04E602375F88C908F5FE475F0011209DF
:10118300661206A3F5FA908F5FE475F00112096603
:101193001206A3F5FBD2FEE4F5F8D2AF22908F65D9
:1011A30012097D908F68EDF0E0FF908F6512095D65
:1011B3009000031207CDFD908F6512095DE9240CA1
:1011C300F9EA3404FAE92DF9EA35F0FAEF120742A5
:1011D300908F6512095D9000031207CDFFAEF0906A
:1011E3008F6512095D9000011207CDD39FE5F09E34
:1011F3004027908F6512095D9000031207CD2401EB
:10120300FFE435F0FE908F6512095D90000112072F
:10121300CD6F7003EE65F060D9908F6512095D9014
:101223000003E475F001120851908F6512095D9077
:1012330000031207CDC3E5F09401401F908F6512A0
:10124300095D9000011207CD45F060F0908F6512A3
:10125300095D900003E4F5F01208BD908F65120953
:101263005D9000051206BC704C908F6512095D906D
:1012730000057401120754908F6512095D1206A3CD
:10128300B40203D29922908F6512095D1206A3B4AA
:101293000304439B0222908F6512095D1206A3B4D7
:1012A300040443960122908F6512095D1206A3B4CC
:1012B300050343A70122908F59EEF0A3EFF0A31289
:1012C300097DC2AF908F59E0A3E05401908F60F085
:1012D300908F59E0FEA3E0FFEEC313FEEF13FF90E0
:1012E3008F59EEF0A3EFF0E4F5F1908F59E0FEA3F0
:1012F300E0EEF5F2908F59E0A3E0F5F375F4017594
:10130300F8AF30FCFD908F5EE0FEA3E0D39400EED7
:10131300940050030213A8D2FE20FEFD908F60E0DC
:10132300703D908F5EE0FEA3E0D39400EE94004006
:101333002E908F5BE475F001120966E5FA120742FD
:10134300908F5BE475F001120966E5FB120742908A
:101353008F607401F0908F5E74FFF5F01207769042
:101363008F60E0B4019F908F5EE0FEA3E0D3940012
:10137300EE94004090908F5BE475F001120966E5EE
:10138300FC120742908F5BE475F001120966E5FDDC
:10139300120742E4908F60F0908F5E74FFF5F012B5
:1013A3000776021308E4F5F8D2AF2290821A74028A
:1013B300F0E4A3F0A3F0A3F0A3F0A3F0A3F0A3F051
:1013C300A3F0A3F0A3F0A3F090872604F0E4A3F026
:1013D300A37405F0E4908E38F0A3F0908E38E0FE0D
:1013E300A3E0C3EE9401501C908E38E0A3E02426C2
:1013F300F58274863EF583E4F0908E3875F0011221
:10140300077680D7E4908E38F0A3F0908E38E0FE14
:10141300A3E0C3EE9404501C908E38E0A3E024268E
:10142300F58274823EF583E4F0908E3875F00112F4
:10143300077680D7908E387403F0A374E4F043C921
:101443004053B7CF43B71075D880759850908E38F6
:10145300E0FEA3E0EEF5BA908E38E0A3E0F5AAD261
:10146300ACD2AF22C0E0C0F0C083C082C0D075D080
:1014730000C000C001C002C003C004C005C006C054
:1014830007908F79120908E47B01FAF9F81208EA48
:10149300908F79120920C2C6908F75120908E4F85B
:1014A3001208EA908F75120920908F71120908ECC7
:1014B3004D4E4F6015908F7112090874FFFBFAF9B6
:1014C300F81208EA908F71120920E47FE77E03FD8A
:1014D300FC908F75120914C31208F7401F908F7583
:1014E30012092C00000000908F81120908E47B018F
:1014F300FAF9F81208EA908F811209201200DFD05E
:1015030007D006D005D004D003D002D001D000D03C
:10151300D0D082D083D0F0D0E0329087297403F00A
:10152300E4A3F0A3F0A3F0A3F0A3F0A3F0A3F0A32C
:10153300F0A3F0A3F0A3F0908C3504F0E4A3F0A3A0
:101543007405F0E4908E38F0A3F0908E38E0FEA39B
:10155300E0C3EE9401501C908E38E0A3E02435F5EF
:1015630082748B3EF583E4F0908E3875F001120798
:101573007680D7E4908E38F0A3F0908E38E0FEA307
:10158300E0C3EE9404501C908E38E0A3E02435F5BC
:101593008274873EF583E4F0908E3875F00112076C
:1015A3007680D7908E387403F0A374FCF0908E3855
:1015B300E0FEA3E0EEF5BB908E38E0A3E0F59D439B
:1015C300C92043B740759B90439A01D2AF22908EB6
:1015D3003F12097D908E42EDF0908E3F12095D120D
:1015E30006A3645A6003021679908E3F12095D9038
:1015F30000011206BC64A5707D908E3F12095D90B8
:1016030000031206BCB4821D908E43E024FF9201B6
:10161300A3E024FF9202908E42E0FF908E3F1209D6
:101623005D120EA322908E3F12095D9000031206F5
:10163300BC648370417BFF7A1B79BE78457C8E7DC9
:10164300017E017F0812067D908E44E024FF920202
:10165300908E42E0FF7B017A8E7945C003C002C0C1
:1016630001908E3F12095D908F5112097DD001D0F8
:1016730002D00312098622C0E0C0F0C083C082C03A
:10168300D075D000C000C004C006C007E59B30E0A1
:1016930029539BFE908731E0FEA3E02435F5827445
:1016A300873EF583E59CF0908731E475F0011207DE
:1016B30076908731E05403F08048E59B30E1435353
:1016C3009BFD90872CE0FEA3E0FF90872AE0FCA31C
:1016D300E06F7002EC6E602590872AE0FEA3E024A1
:1016E30035F582748B3EF583E0F59C90872AE4758B
:1016F300F00112077690872AE0E4F0800590872EA8
:10170300E4F0D007D006D004D000D0D0D082D0836C
:10171300D0F0D0E032C0E0C0F0C083C082C0D0754A
:10172300D000C000C004C006C007C2AF309828C2B2
:1017330098908222E0FEA3E02426F58274823EF58F
:1017430083E599F0908222E475F001120776908286
:1017530022E05403F08045309942C29990821DE003
:10176300FEA3E0FF90821BE0FCA3E06F7002EC6E2F
:10177300602590821BE0FEA3E02426F58274863E5A
:10178300F583E0F59990821BE475F00112077690DA
:10179300821BE0E4F0800590821FE4F0D2AFD00713
:1017A300D006D004D000D0D0D082D083D0F0D0E007
:1017B30032787FE4F6D8FD7581200217FB021B22E5
:1017C300E493A3F8E493A34003F68001F208DFF463
:1017D3008029E493A3F85407240CC8C333C4540FDB
:1017E3004420C8834004F456800146F6DFE4800BAE
:1017F3000102040810204080900C67E47E0193608E
:10180300BCA3FF543F30E509541FFEE493A36001DA
:101813000ECF54C025E060A840B8E493A3FAE49344
:10182300A3F8E493A3C8C582C8CAC583CAF0A3C8F2
:10183300C582C8CAC583CADFE9DEE780BE908E3A97
:10184300EEF0A3EFF0E4A3F0A3F0C2AFF5F1908EB6
:101853003AE0FEA3E0FFEEC313FEEF13EEF5F290C2
:101863008E3AE0FEA3E0FFEEC313EF13F5F375F832
:10187300AF30FCFDD2FE20FEFD908E3AE0A3E030B7
:10188300E014AFFCEFFEADFD7C00E42DFFEC3EA3C6
:10189300F0A3EFF08014AFFAEFFEADFB7C00E42D74
:1018A300FFEC3E908E3CF0A3EFF0E4F5F8D2AF905E
:1018B3008E3CE0FEA3E0FF22908F5D12097D908FA6
:1018C30060ECF0A3EDF0A374FFF0A3F0908F6074CD
:1018D300FFF5F012078C45F06047908F5DE475F0DB
:1018E300011209661206A3FF908F63E06FFFA3E462
:1018F300F0A3EFF0908F64E0FEA3E02438F5827448
:101903008C3EF583E0FF908F62E06FA3F0A3E0A32A
:10191300E02438F582748D3EF583E0908F62F08089
:10192300AB908F62E0FEA3E0FDEEEDFF22C0E0C0CE
:10193300F0C083C082C0D075D000C000C001C00217
:10194300C003C004C005C006C007758CBC758ACD32
:10195300908F69120908E47B01FAF9F81208EA90FA
:101963008F69120920908F71120908EC4D4E4F6058
:1019730015908F7112090874FFFBFAF9F81208EA3F
:10198300908F71120920D007D006D005D004D00360
:10199300D002D001D000D0D0D082D083D0F0D0E01C
:1019A30032C0E0C0F0C083C082C0D075D000C00098
:1019B300C001C002C003C004C005C006C007758DC6
:1019C300BC758BCD908F6D120908E47B01FAF9F891
:1019D3001208EA908F6D120920908F71120908EC9A
:1019E3004D4E4F6015908F7112090874FFFBFAF981
:1019F300F81208EA908F71120920D007D006D0059B
:101A0300D004D003D002D001D000D0D0D082D08374
:101A1300D0F0D0E032908E38EEF0A3EFF0A3745AFA
:101A2300F0A37401F0908E38E0FEA3E0EE908E3CBC
:101A3300F0908E38A3E0908E3DF07B017A8E793A58
:101A4300908F62E4F0A37402F07F847E0012107F13
:101A530022908F5DEFF0A312097DE4908F62F090E6
:101A63008F61E0FFA3E0C39F501C908F5DE0FFA355
:101A7300E475F0011209661206A3FD12004E908F61
:101A830062E004F080D922908728E070097B017A14
:101A930082791A120103908C37E070097B017A87EF
:101AA3007929120103227F147E00121840908E3888
:101AB300EEF0A3EFF0908E38E0FEA3E0FF22E4F512
:101AC3008E75C870F59375940175950275C9607527
:101AD300F901F5F82275C870E4F5CDF5CC75CBBCEA
:101AE30075CACD43A820D2C8D2AD22E58954F044AB
:101AF30001F589758CBC758ACDD2A9D28C22E58972
:101B0300540F4410F589758DBC758BCDD2ABD28E35
:101B130022C2AF121AEE121B01121AD8D2AF22122E
:101B23001B3A12002E12008680FB22E4F5A8F5B8BA
:101B3300F59AF5A9F5B922C2AF121AC1121B2ED21A
:101B4300AF221213AE12151D220000000000000088
:101B53000000000000000000000000000000000082
:101B63000000000000000000000000000000000072
:101B73000000000000000000000000000000000062
:101B83000000000000000000000000000000000052
:101B93000000000000000000000000000000000042
:101BA300000000000000000000000000005AA50330
:101BB300824F4B5AA505824F4BA5EF000000000052
:101BC3000000000000000000000000000000000012
:101BD3000000000000000000000000000000000002
:101BE30000000000000000000000000000000000F2
:101BF30000000000000000000000000000000000E2
:101C030000000000000000000000000000000000D1
:101C130000000000000000000000000000000000C1
:101C230000000000000000000000000000000000B1
:101C330000000000000000000000000000000000A1
:101C43000000000000000000000000000000000091
:101C53000000000000000000000000000000000081
:101C63000000000000000000000000000000000071
:101C73000000000000000000000000000000000061
:101C83000000000000000000000000000000000051
:101C93000000000000000000000000000000000041
:101CA3000000000000000000000000000000000031
:101CB3000000000000000000000000000000000021
:031CC3000000001E
:00000001FF
